S01000004441435F536964652E7372656368
S11300000C9434000C943E000C943E000C943E007E
S11300100C943E000C943E000C943E000C943E0064
S11300200C943E000C943E000C943E000C943E0054
S11300300C943E000C943E000C943E000C943E0044
S11300400C943E000C943E000C943E000C943E0034
S11300500C943E000C943E000C943E000C943E0024
S11300600C943E000C943E0011241FBECFEFD8E048
S1130070DEBFCDBF0E9440000C945E000C940000D3
S11300808FEF8AB981E091E030E0882349F08BB1A9
S11300908F5F8BB92BB1892F2F3F49F4832F07C072
S11300A08BB181508BB92BB1892F2111832FE7ECB0
S11300B0F0E03197F1F700C00000E7CFF894FFCFEC
S9030000FC
